:020000040800F2
:1000000000000120C5020008CB020008CF02000852
:1000100041030008450300088D03000800000000AC
:10002000000000000000000000000000D5030008F0
:10003000D903000800000000DD030008BD2200080D
:10004000F1030008F1030008F1030008F1030008C0
:10005000F1030008F1030008110900082D09000848
:10006000F1030008F1030008F1030008F1030008A0
:10007000F1030008F1030008F1030008F103000890
:10008000F1030008F1030008F1030008000000007C
:10009000000000000000000000000000F103000864
:1000A000F1030008F1030008F1030008F103000860
:1000B000D90D0008B90E0008910F0008F1030008DF
:1000C000F1030008F1030008F1030008F103000840
:1000D000F1030008F1030008F1030008000000002C
:1000E000F1030008F1030008F1030008000000001C
:1000F000000000000000000000000000F103000804
:1001000000000000F1030008F1030008F1030008FB
:1001100000000000000000000000000000000000DF
:10012000F1030008F1030008F1030008F1030008DF
:10013000F1030008000000000000000000000000C3
:10014000000000000000000000000000F1030008B3
:10015000F1030008F1030008F1030008F1030008AF
:10016000F1030008F1030008000000000000000097
:10017000000000000000000000000000000000007F
:1001800000000000F1030008000000000000000073
:10019000F103000800B583B000F0BAF9384B394AD2
:1001A0001360394A1360394900E02146384B9942BF
:1001B0000BD20A684B6801F10C0488689842F4D9A4
:1001C0001168196004330432F8E72E4B1A68314B7A
:1001D0009A4200D0FEE72C4B1A682F4B9A42F9D175
:1001E000274B2E4A13602E4A13602E4B05E0002049
:1001F000106004329342FAD80B462B4A934204D241
:10020000194651F8082B5B68F4E7244B1B6813B9B7
:10021000234B1B6803B1FEE700F086F9694601A88D
:1002200000F022F9214C224BE41AA4100025AC4224
:1002300014DC204C204BE41AA4100025AC4213DC43
:100240000099019802F0FEF905461C4C1C4BE41A7B
:10025000A410002C0EDC284600F0E2F8144B53F8F2
:10026000253098470135E2E7134B53F8253098477E
:100270000135E3E7013C124B53F824309847E8E797
:10028000BABADECA0000002078000020F40300089B
:100290000C04000878563412325476987C00002002
:1002A000640200200C0400081C0400081C04000860
:1002B0001C0400081C0400081C0400081C0400089E
:1002C0001C04000808B5FFF765FF00BEFEE71EF03E
:1002D000040F0CBFEFF30880EFF309807146414A29
:1002E00010472DE9F04182B004468846124B5E6B00
:1002F0009F6B9D6A1B6B13F0020F03D00E4BDB6AE2
:10030000002B0CDB0D4800F0B7F8CDF800803B4621
:1003100032462946204600F00BF900BEFEE74BF6B8
:10032000AB6100F07FF90028ECD0034B4FF00042A6
:10033000DA6202B0BDE8F08100ED00E0F4320008BE
:1003400000BEFEE71EF0040F0CBFEFF30880EFF3D2
:1003500009807146244A10472DE9F04182B00446D5
:100360008846084B5E6B9F6B9D6A074800F084F8D7
:10037000CDF800803B4632462946204600F0D8F8AA
:1003800000BEFEE700ED00E0043300081EF0040F9D
:100390000CBFEFF30880EFF309807146134A104752
:1003A0002DE9F04182B004468846084B5E6B9F6B96
:1003B0009D6A074800F060F8CDF800803B46324661
:1003C0002946204600F0B4F800BEFEE700ED00E04C
:1003D0001033000800BEFEE700BEFEE700BEFEE7E9
:1003E00070470000E302000859030008A103000859
:0403F00000BEFEE766
:1003F4007C840308000000207C0000207C84030827
:1004040000000010000000107C00002068020020A2
:080414000000001000000010C0
:10042000FEE7000008B503460C4A12685AB10B4AB1
:100430001068033323F003030344094A934206D8A8
:10044000064A136008BD054A06491160EFE702F04D
:1004500049FA0C2303604FF0FF30F3E780000020DF
:1004600000FC00206802002001230360014B0B60A8
:10047000704700BF040000200FB400B583B004AB88
:1004800053F8042B01938021064802F05DFA0028FE
:1004900003DD0146034800F037F803B05DF804EBD4
:1004A00004B07047880000202DE9F04385B0044671
:1004B0000F4643560BB10E461EE004252846214642
:1004C000ABBE0446384605B0BDE8F08314F9011B05
:1004D00004AA1A4402F8101C0133AB42F6D304AA52
:1004E0001344002203F8102C4FF00408E94640465C
:1004F0004946ABBE8046761B002EE3D03546102E13
:1005000028BF10250023E8E708B5FFF7CDFF08BD99
:1005100008B500F097F8024A024B9A6008BD00BF88
:100520000000000800ED00E008B500F0ABF808BDE1
:10053000F8B504460D4617461E462748FFF79CFFB0
:1005400021682648FFF798FF61682548FFF794FF68
:10055000A1682448FFF790FFE1682348FFF78CFF6C
:1005600021692248FFF788FF61692148FFF784FF6E
:10057000A1692048FFF780FFE1691F48FFF77CFF72
:100580001E48FFF779FF29461D48FFF775FF1D4CF0
:10059000E16A1D48FFF770FF216B1C48FFF76CFFF5
:1005A000E16B1B48FFF768FF15F0800F0AD115F4C7
:1005B000004F0CD11748FFF75FFF06991648FFF769
:1005C0005BFFF8BD39461548FFF756FFEFE73146A8
:1005D0001348FFF751FFEDE7D8310008E831000874
:1005E000F8310008083200081832000828320008E4
:1005F00038320008483200085832000868320008D3
:100600007432000800ED00E08432000894320008E3
:10061000A4320008D4320008DC320008B4320008EA
:10062000C432000883691A888A4201D000207047CA
:100630000268033A012A03D802338361012070471C
:10064000002070470C4B1A6842F001021A6000212A
:1006500099601A6822F0847222F480321A60074A84
:100660005A601A6822F480221A60D960044B4FF055
:1006700000629A60704700BF0038024010300024CA
:1006800000ED00E0224B9B6803F00C03042B14D018
:10069000082B16D01BB11F4B1F4A1A6002E01D4BDE
:1006A0001D4A1A601A4B9B68C3F303131B4AD15CA3
:1006B000184A1368CB4013607047164B164A1A60ED
:1006C000F0E7134B5A685B6803F03F0312F4800FA6
:1006D00013D0114AB2FBF3F20D4B5B68C3F38813DE
:1006E00003FB02F30A4A5268C2F30142013252008C
:1006F000B3FBF2F3074A1360D4E7074AB2FBF3F205
:10070000034B5B68C3F3881303FB02F3EAE700BF04
:10071000003802400C0000200024F40020330008C0
:1007200008B501220721104600F00EF90122082128
:10073000104600F009F901220921104600F004F9E1
:1007400001220A21104600F0FFF801220C21104678
:1007500000F0FAF801220D21104600F0F5F8012210
:100760000E21104600F0F0F801220F21104600F093
:10077000EBF8012300220721184600F027F9012396
:1007800000220821184600F021F901230022092146
:10079000184600F01BF9012300220A21184600F038
:1007A00015F9012300220C21184600F00FF901234E
:1007B00000220D21184600F009F9012300220E2124
:1007C000184600F003F9012300220F21184600F01B
:1007D000FDF808BDF8B507460D4616460024AC42A4
:1007E00030D23378012B2DD13A5DD2090721012077
:1007F00000F08EF900220821012000F089F9002282
:100800000921012000F084F900220A21012000F0D2
:100810007FF900220C21012000F07AF900220D213D
:10082000012000F075F900220E21012000F070F97E
:1008300000220F21012000F06BF97D2000F020FA4A
:100840000134CCE7F8BD000030B483080A4A023313
:1008500052F8234000F0030080000F25854024EA71
:10086000050442F8234052F823408140214342F8D6
:10087000231030BC704700BF0038014011B101297E
:1008800008D0704708490B68012202FA00F01843AB
:100890000860704704490B68012202FA00F023EA5D
:1008A00000000860704700BF003C014001290FD0E4
:1008B00011B1022918D07047114B9968012202FA30
:1008C00000F001439960DA6822EA0000D8607047BE
:1008D0000B4BD968012202FA00F00143D9609A68F3
:1008E00022EA000098607047054AD168012303FAA4
:1008F00000F00143D160936818439060704700BFD7
:10090000003C0140014B1860704700BF0801002007
:1009100008B5044B1B689847034A536943F0010329
:10092000536108BD08010020003C014008B5044B9C
:100930005B689847034A536943F00203536108BD5B
:1009400008010020003C014010B4012817D018B164
:10095000022826D010BC7047A1F10D03DBB2022B98
:10096000F8D9174B1868490003248C4020EA04008A
:100970001860186802FA01F101431960EAE78B1E5A
:10098000DBB2022BE6D90F4B1868490003248C40D8
:1009900020EA04001860186802FA01F101431960A6
:1009A000D8E7094B1868490003248C4020EA04006A
:1009B0001860186802FA01F101431960CAE700BF24
:1009C00000000240000402400008024030B4012848
:1009D00021D018B102283AD030BC7047A1F10D00E7
:1009E000C0B20228F8D92648446801258D4024EA7F
:1009F0000504446044688A4022434260826849009A
:100A000003248C4022EA04028260826803FA01F126
:100A100011438160E0E7881EC0B20228DCD9194882
:100A2000446801258D4024EA0504446044688A40F6
:100A3000224342608268490003248C4022EA040277
:100A40008260826803FA01F111438160C4E70E48B5
:100A5000446801258D4024EA0504446044688A40C6
:100A6000224342608268490003248C4022EA040247
:100A70008260826803FA01F111438160ACE700BF34
:100A800000000240000402400008024010B40128A7
:100A900017D018B1022826D010BC7047A1F10D0361
:100AA000DBB2022BF8D9174BD868490003248C40DD
:100AB00020EA0400D860D86802FA01F10143D96045
:100AC000EAE78B1EDBB2022BE6D90F4BD868490050
:100AD00003248C4020EA0400D860D86802FA01F1AF
:100AE0000143D960D8E7094BD868490003248C40FA
:100AF00020EA0400D860D86802FA01F10143D96005
:100B0000CAE700BF000002400004024000080240A3
:100B100010B4012815D018B1022822D010BC70479B
:100B2000A1F10D03DBB2022BF8D9144B5869012453
:100B30008C4020EA0400586158698A4002435A6197
:100B4000ECE78B1EDBB2022BE8D90D4B5869012470
:100B50008C4020EA0400586158698A4002435A6177
:100B6000DCE7084B586901248C4020EA04005861F6
:100B700058698A4002435A61D0E700BF0000024032
:100B80000004024000080240072926D8012810D09E
:100B900010B1022819D07047A1F10D03DBB2022B6E
:100BA00049D92548036A890002FA01F10B4303621F
:100BB00070478B1EDBB2022B3DD92048036A8900A7
:100BC00002FA01F10B43036270471D48036A890072
:100BD00002FA01F1194301627047A1F10803DBB287
:100BE000072B28D8012811D010B102281BD070473C
:100BF000A1F10D03DBB2022B1DD90F48436A08395E
:100C0000890002FA01F11943416270478B1EDBB281
:100C1000022B10D90948436A0839890002FA01F108
:100C20001943416270470448436A0839890002FA4F
:100C300001F1194341627047000002400004024084
:100C4000000802404FF080431A6822F070021A60D8
:100C50001A6842F010021A601A6842F080021A60A4
:100C60001A6842F004021A601A6822F002021A603E
:100C7000DA6822F00102DA6007229A627047000007
:100C800010B41A4BA3FB0023DB0BC3EB0344041B80
:100C900012E04FF080434FF6FF72DA625A6942F079
:100CA00001025A611A6842F001021A601A691A694F
:100CB00022F001021A610B46591E002BE9D14FF0B8
:100CC0008043DC625A6942F001025A611A6842F0BC
:100CD00001021A601A691A6922F001021A611A687F
:100CE00022F001021A6010BC704700BF0180008032
:100CF0000D4B1A6822F070021A601A6842F0100256
:100D00001A601A6842F080021A601A6842F00402FF
:100D10001A601A6822F002021A60DA6822F00102F0
:100D2000DA6007229A6270470004004010B4194B41
:100D3000A3FB0023DB0BC3EB0344041B11E0164BA6
:100D40004FF6FF72DA625A6942F001025A611A687C
:100D500042F001021A601A691A6922F001021A614E
:100D60000B46591E002BEAD10B4BDC625A6942F04C
:100D700001025A611A6842F001021A601A691A697E
:100D800022F001021A611A6822F001021A6010BCF6
:100D9000704700BF01800080000400400D4B1A68BE
:100DA00022F070021A601A6842F010021A601A6883
:100DB00042F080021A601A6842F004021A601A684F
:100DC00022F002021A60DA6822F00102DA600722D9
:100DD0009A6270470008004008B5314B1B7833B168
:100DE000304B1A68304B1A602D4B00221A702E4B74
:100DF0001B68012B11D92C4A1368013B13604FF07B
:100E000080431A6922F001021A614FF6FF72DA621A
:100E10005A6942F001025A6108BD234B1B68012B3D
:100E200026D0224B1B784BB94FF08043DA6822F072
:100E30000102DA601A6822F001021A601C4B1B687A
:100E400098474FF08042136923F001031361154B5B
:100E50001B68FBB113464FF6FF72DA624FF0804217
:100E6000536943F0010353610D4B01221A70D3E71C
:100E70000D4A1368013B13604FF080431A6922F05A
:100E800001021A610B4A1268DA625A6942F00102E1
:100E90005A61C1E7074B1A684FF08043DA62DDE719
:100EA00010000020500100204801002070010020A7
:100EB0006C0100204C01002008B52E4B1B7833B18B
:100EC0002D4B1A682D4B1A602A4B00221A702B4B9F
:100ED0001B68012B10D9294A1368013B1360284B6A
:100EE0001A6922F001021A614FF6FF72DA625A693A
:100EF00042F001025A6108BD204B1B68012B23D030
:100F0000204B1B7843B91E4BDA6822F00102DA60ED
:100F10001A6822F001021A601B4B1B689847184A96
:100F2000136923F001031361134B1B68EBB11346E4
:100F30004FF6FF72DA62124A536943F001035361BC
:100F40000C4B01221A70D6E70C4A1368013B136060
:100F50000B4B1A6922F001021A610C4A1268DA621C
:100F60005A6942F001025A61C5E7084B1A68044BFE
:100F7000DA62E0E7110000205C010020540100204B
:100F80000004004078010020740100205801002076
:100F900008B52E4B1B7833B12D4B1A682D4B1A60B8
:100FA0002A4B00221A702B4B1B68012B10D9294A9F
:100FB0001368013B1360284B1A6922F001021A6181
:100FC0004FF6FF72DA625A6942F001025A6108BDB7
:100FD000204B1B68012B23D0204B1B7843B91E4BA1
:100FE000DA6822F00102DA601A6822F001021A605F
:100FF0001B4B1B689847184A136923F001031361C0
:10100000134B1B68EBB113464FF6FF72DA62124ABC
:10101000536943F0010353610C4B01221A70D6E768
:101020000C4A1368013B13600B4B1A6922F0010252
:101030001A610C4A1268DA625A6942F001025A6176
:10104000C5E7084B1A68044BDA62E0E7120000209B
:10105000680100206001002000080040800100209D
:101060007C01002064010020084A136843F001035A
:101070001360064B1B685B08FBD0044B9A6822F098
:1010800003029A609A689A60704700BF0038024075
:10109000032822D8DFE800F0020A121A0F48036B77
:1010A000012202FA01F11943016370470B48436BB7
:1010B000012202FA01F11943416370470748036CAA
:1010C000012202FA01F11943016470470348436C9D
:1010D000012202FA01F119434164704700380240CD
:1010E00010B44409064951F8243000F01F000122D1
:1010F00002FA00F0184341F8240010BC704700BF0A
:1011000000E100E0144B1A6822F040021A601A68ED
:1011100022F400621A601A6822F038021A601A6813
:1011200042F002021A601A6822F001021A601A687C
:1011300042F004021A601A6822F080021A601A68EB
:1011400042F480721A601A6842F400721A601A68D7
:1011500042F040021A60704700300140034B9A6829
:10116000D8609A68D86880B2704700BF00300140EC
:1011700010B54FF47E4001F01CF8142001F06AF81D
:101180004FF6415001F015F8142001F063F84FF6C6
:10119000413001F00EF8142001F05CF84FF2497074
:1011A00001F007F8142001F055F84EF6497001F0EF
:1011B00000F8142001F04EF84DF6497000F0F9FFE8
:1011C000142001F047F84BF67F7000F0F2FF142076
:1011D00001F040F84FF4FE4000F0EBFFFD4C2046DC
:1011E00001F038F84FF47E4000F0E3FF142001F0E6
:1011F00031F84FF6A05000F0DCFF142001F02AF87F
:101200004FF6A03000F0D5FF142001F023F84FF284
:10121000A47000F0CEFF142001F01CF84EF6A4706C
:1012200000F0C7FF142001F015F84DF6A47000F08F
:10123000C0FF142001F00EF84BF6BF7000F0B9FFAC
:10124000142001F007F84FF4FE4000F0B2FF2046F2
:1012500001F000F84FF47E4000F0ABFF142000F0E6
:10126000F9FF4FF6D05000F0A4FF142000F0F2FF79
:101270004FF6503000F09DFF142000F0EBFF4FF2CE
:10128000527000F096FF142000F0E4FF4EF6D2708A
:1012900000F08FFF142000F0DDFF4DF6527000F0DB
:1012A00088FF142000F0D6FF4BF6DF7000F081FFBE
:1012B000142000F0CFFF4FF4FE4000F07AFF2046EC
:1012C00000F0C8FF4FF47E4000F073FF142000F0E0
:1012D000C1FF4FF6E85000F06CFF142000F0BAFF99
:1012E0004FF6283000F065FF142000F0B3FF4FF2F6
:1012F000297000F05EFF142000F0ACFF4EF6E9709C
:1013000000F057FF142000F0A5FF4DF6297000F003
:1013100050FF142000F09EFF4BF6EF7000F049FFE5
:10132000142000F097FF4FF4FE4000F042FF2046EB
:1013300000F090FF4FF47E4000F03BFF142000F0DF
:1013400089FF4FF6745000F034FF142000F082FF44
:101350004FF6143000F02DFF142000F07BFF4FF209
:10136000147000F026FF142000F074FF4EF6747025
:1013700000F01FFF142000F06DFF4DF6147000F018
:1013800018FF142000F066FF4BF6777000F011FF95
:10139000142000F05FFF4FF4FE4000F00AFF2046EB
:1013A00000F058FF4FF47E4000F003FF142000F0DF
:1013B00051FF4FF6BA5000F0FCFE142000F04AFF37
:1013C0004FF68A3000F0F5FE142000F043FF4FF294
:1013D0008A7000F0EEFE142000F03CFF4EF6BA706A
:1013E00000F0E7FE142000F035FF4DF68A7000F0A3
:1013F000E0FE142000F02EFF4BF6BB7000F0D9FE8B
:10140000142000F027FF4FF4FE4000F0D2FE2046EB
:1014100000F020FF4FF47E4000F0CBFE142000F0DF
:1014200019FF4FF65D5000F0C4FE142000F012FFCB
:101430004FF6453000F0BDFE142000F00BFF4FF2D8
:10144000457000F0B6FE142000F004FF4EF65D700B
:1014500000F0AFFE142000F0FDFE4DF6457000F0E8
:10146000A8FE142000F0F6FE4BF6DD7000F0A1FEA1
:10147000142000F0EFFE4FF4FE4000F09AFE2046EC
:1014800000F0E8FE4FF47E4000F093FE142000F0E0
:10149000E1FE4FF62E5000F08CFE142000F0DAFE34
:1014A0004FF6223000F085FE142000F0D3FE4FF2FC
:1014B000227000F07EFE142000F0CCFE4EF62E705E
:1014C00000F077FE142000F0C5FE4DF6227000F00B
:1014D00070FE142000F0BEFE4BF6EE7000F069FEC8
:1014E000142000F0B7FE4FF4FE4000F062FE2046EC
:1014F00000F0B0FE4FF47E4000F05BFE142000F0E0
:10150000A9FE4FF6175000F054FE142000F0A2FE82
:101510004FF6113000F04DFE142000F09BFE4FF20C
:10152000117000F046FE142000F094FE4EF6177085
:1015300000F03FFE142000F08DFE4DF6117000F01B
:1015400038FE142000F086FE4BF6777000F031FE76
:10155000142000F07FFE4FF4FE4000F02AFE2046EB
:1015600000F078FE4FF47E4000F023FE142000F0DF
:1015700071FE4FF60B5000F01CFE142000F06AFEC6
:101580004FF6883000F015FE142000F063FE4FF295
:10159000887000F00EFE142000F05CFE4EF688709D
:1015A00000F007FE142000F055FE4DF68B7000F0A1
:1015B00000FE142000F04EFE4BF6887000F0F9FD9E
:1015C000142000F047FE47F63B7000F0F2FD204685
:1015D00002E000BFF049020000F03CFE4FF47E4004
:1015E00000F0E7FD142000F035FE4FF63C5000F00F
:1015F000E0FD142000F02EFE4FF6023000F0D9FD81
:10160000142000F027FE4FF2017000F0D2FD1420EC
:1016100000F020FE4EF6017000F0CBFD142000F02B
:1016200019FE4DF6027000F0C4FD142000F012FE09
:101630004BF63C7000F0BDFD142000F00BFE4FF4A3
:10164000FE4000F0B6FD204600F004FE4FF47E4060
:1016500000F0AFFD142000F0FDFD4FF61E5000F02D
:10166000A8FD142000F0F6FD4FF6013000F0A1FDBA
:10167000142000F0EFFD4FF2807000F09AFD14206E
:1016800000F0E8FD4EF6807000F093FD142000F0AD
:10169000E1FD4DF6017000F08CFD142000F0DAFD44
:1016A0004BF61E7000F085FD142000F0D3FD4FF4C2
:1016B000FE4000F07EFD204600F0CCFD4FF47E4061
:1016C00000F077FD142000F0C5FD4FF60F5000F03C
:1016D00070FD142000F0BEFD4FF6803000F069FD73
:1016E000142000F0B7FD4FF2207000F062FD1420CE
:1016F00000F0B0FD4EF6207000F05BFD142000F00D
:10170000A9FD4DF6807000F054FD142000F0A2FDFC
:101710004BF60F7000F04DFD142000F09BFD4FF4D0
:10172000FE4000F046FD204600F094FD4FF47E4060
:1017300000F03FFD142000F08DFD4FF6875000F0C3
:1017400038FD142000F086FD4FF6203000F031FD0A
:10175000142000F07FFD4FF2207000F02AFD1420CD
:1017600000F078FD4EF6207000F023FD142000F00C
:1017700071FD4DF6207000F01CFD142000F06AFD94
:101780004BF6877000F015FD142000F063FD4FF458
:10179000FE4000F00EFD204600F05CFD4FF47E4060
:1017A00000F007FD142000F055FD4FF6C35000F087
:1017B00000FD142000F04EFD4FF6203000F0F9FC43
:1017C000142000F047FD4FF2107000F0F2FC1420DE
:1017D00000F040FD4EF6107000F0EBFC142000F01D
:1017E00039FD4DF6207000F0E4FC142000F032FDCD
:1017F0004BF6C37000F0DDFC142000F02BFD4FF41D
:10180000FE4000F0D6FC204600F024FD4FF47E4060
:1018100000F0CFFC142000F01DFD4FF6E15000F069
:10182000C8FC142000F016FD4FF6103000F0C1FC8B
:10183000142000F00FFD4FF2087000F0BAFC1420E5
:1018400000F008FD4EF6087000F0B3FC142000F024
:1018500001FD4DF6107000F0ACFC142000F0FAFC15
:101860004BF6E17000F0A5FC142000F0F3FC4FF4FF
:10187000FE4000F09EFC204600F0ECFC4FF47E4061
:1018800000F097FC142000F0E5FC4FF6F05000F05B
:1018900090FC142000F0DEFC4FF6083000F089FCCC
:1018A000142000F0D7FC4FF2047000F082FC1420EA
:1018B00000F0D0FC4EF6047000F07BFC142000F029
:1018C000C9FC4DF6087000F074FC142000F0C2FC56
:1018D0004BF6F07000F06DFC142000F0BBFC4FF4F0
:1018E000FE4000F066FC204600F0B4FC4FF47E4061
:1018F00000F05FFC142000F0ADFC4FF6785000F0D3
:1019000058FC142000F0A6FC4FF6043000F051FC07
:10191000142000F09FFC4FF2027000F04AFC1420EB
:1019200000F098FC4EF6027000F043FC142000F02A
:1019300091FC4DF6047000F03CFC142000F08AFC91
:101940004BF6787000F035FC142000F083FC4FF467
:10195000FE4000F02EFC204600F07CFC4FF47E4060
:1019600000F027FC142000F075FC4FF60E5000F03C
:1019700020FC142000F06EFC4FF6113000F019FC32
:10198000142000F067FC4FF2117000F012FC1420DC
:1019900000F060FC4EF6117000F00BFC142000F01B
:1019A00059FC4DF6117000F004FC142000F052FCBC
:1019B0004BF60E7000F0FDFB142000F04BFC4FF4D2
:1019C000FE4000F0F6FB204600F044FC4FF47E4061
:1019D00000F0EFFB142000F03DFC4FF6075000F044
:1019E000E8FB142000F036FC4FF6883000F0E1FBF5
:1019F000142000F02FFC4FF2887000F0DAFB142066
:101A000000F028FC4EF6887000F0D3FB142000F0A4
:101A100021FC4DF6887000F0CCFB142000F01AFC7D
:101A20004BF6077000F0C5FB142000F013FC4FF4D8
:101A3000FE4000F0BEFB204600F00CFC4FF47E4060
:101A400000F0B7FB142000F005FC4FF6835000F0C7
:101A5000B0FB142000F0FEFB442000F0AAFB142091
:101A600000F0F8FB4FF2447000F0A3FB142000F0EC
:101A7000F1FB4EF6447000F09CFB142000F0EAFBF2
:101A80004DF6447000F095FB142000F0E3FB4BF69C
:101A9000837000F08EFB142000F0DCFB4FF4FE405E
:101AA00000F087FB204600F0D5FB4FF47E4000F0AD
:101AB00080FB142000F0CEFB4FF6C15000F079FB04
:101AC000142000F0C7FB4FF6223000F072FB142008
:101AD00000F0C0FB4FF2227000F06BFB142000F00E
:101AE000B9FB4EF6227000F064FB142000F0B2FB4C
:101AF0004DF6227000F05DFB142000F0ABFB4BF6BE
:101B0000C17000F056FB142000F0A4FB4FF4FE401F
:101B100000F04FFB204600F09DFB4FF47E4000F0AC
:101B200048FB142000F096FB4FF6E05000F041FB1C
:101B3000142000F08FFB4FF6113000F03AFB142018
:101B400000F088FB4FF2117000F033FB142000F01E
:101B500081FB4EF6117000F02CFB142000F07AFB94
:101B60004DF6117000F025FB142000F073FB4BF6CE
:101B7000E07000F01EFB142000F06CFB4FF4FE4000
:101B800000F017FB204600F065FB4FF47E4000F0AC
:101B900010FB142000F05EFB4FF6705000F009FBC4
:101BA000142000F057FB4FF6883000F002FB1420A1
:101BB00000F050FB4FF2887000F0FBFA142000F0A8
:101BC00049FB882000F0F5FA142000F043FB4DF6A5
:101BD000887000F0EEFA142000F03CFB4BF67070B9
:101BE00000F0E7FA142000F035FB4FF4FE4000F05F
:101BF000E0FA204600F02EFB4FF47E4000F0D9FAC8
:101C0000142000F027FB4FF6385000F0D2FA1420D1
:101C100000F020FB4FF6443000F0CBFA142000F027
:101C200019FB4FF2447000F0C4FA142000F012FBCC
:101C30004EF6447000F0BDFA142000F00BFB4DF698
:101C4000447000F0B6FA142000F004FB4BF6387034
:101C500000F0AFFA142000F0FDFA4FF4FE4000F05F
:101C6000A8FA204600F0F6FA4FF47E4000F0A1FA00
:101C7000142000F0EFFA4FF61C5000F09AFA1420EE
:101C800000F0E8FA4FF6223000F093FA142000F04A
:101C9000E1FA4FF2227000F08CFA142000F0DAFA28
:101CA0004EF6227000F085FA142000F0D3FA4DF6BB
:101CB000227000F07EFA142000F0CCFA4BF61C7073
:101CC00000F077FA142000F0C5FA4FF4FE4000F05F
:101CD00070FA204600F0BEFA4FF47E4000F069FA38
:101CE0004FF47E4000F065FA142000F0B3FA4FF68E
:101CF0000E5000F05EFA142000F0ACFA4FF61130EE
:101D000000F057FA142000F0A5FA4FF2117000F01D
:101D100050FA142000F09EFA4EF6117000F049FAC5
:101D2000142000F097FA4DF6117000F042FA1420DA
:101D300000F090FA4BF60E7000F03BFA142000F021
:101D400089FA4FF4FE4000F034FA204600F082FA9F
:101D50004FF6026000F02DFA142000F07BFAFE200E
:101D600000F027FA142000F075FA4FF6923000F0D8
:101D700020FA142000F06EFA4FF2927000F019FA77
:101D8000142000F067FA4EF6927000F012FA142058
:101D900000F060FA4DF6927000F00BFA142000F09B
:101DA00059FA4BF6927000F004FA142000F052FA3F
:101DB0004FF4FE4000F0FDF9204600F04BFA4FF6DC
:101DC000016000F0F6F9142000F044FA4FF67F505D
:101DD00000F0EFF9142000F03DFA4FF6493000F022
:101DE000E8F9142000F036FA4FF2497000F0E1F9FA
:101DF000142000F02FFA4EF6497000F0DAF91420A2
:101E000000F028FA4DF6497000F0D3F9142000F0E4
:101E100021FA4BF6497000F0CCF9142000F01AFAC0
:101E20004FF4FE4000F0C5F9204600F013FA4FF6DB
:101E3000806000F0BEF9142000F00CFA4FF6BF509D
:101E400000F0B7F9142000F005FA4FF6A43000F0C6
:101E5000B0F9142000F0FEF94FF2A47000F0A9F9D7
:101E6000142000F0F7F94EF6A47000F0A2F9142047
:101E700000F0F0F94DF6A47000F09BF9142000F08A
:101E8000E9F94BF6A47000F094F9142000F0E2F99F
:101E90004FF4FE4000F08DF9204600F0DBF94FF6DC
:101EA000206000F086F9142000F0D4F94FF6DF50DE
:101EB00000F07FF9142000F0CDF94FF6523000F019
:101EC00078F9142000F0C6F94FF2527000F071F961
:101ED000142000F0BFF94EF6527000F06AF9142099
:101EE00000F0B8F94DF6527000F063F9142000F0DC
:101EF000B1F94BF6527000F05CF9142000F0AAF929
:101F00004FF4FE4000F055F9204600F0A3F94FF6DB
:101F1000206000F04EF9142000F09CF94FF6EF50CD
:101F200000F047F9142000F095F94FF6293000F041
:101F300040F9142000F08EF94FF2297000F039F9C1
:101F4000142000F087F94EF6297000F032F91420C1
:101F500000F080F94DF6297000F02BF9142000F004
:101F600079F94BF6297000F024F9142000F072F989
:101F70004FF4FE4000F01DF9204600F06BF94FF6DB
:101F8000106000F016F9142000F064F94FF6F750D5
:101F900000F00FF9142000F05DF94FF6943000F0D6
:101FA00008F9142000F056F94FF2947000F001F98E
:101FB000142000F04FF94EF6947000F0FAF8142057
:101FC00000F048F94DF6947000F0F3F8142000F09A
:101FD00041F94BF6947000F0ECF8142000F03AF957
:101FE0004FF4FE4000F0E5F8204600F033F94FF6DC
:101FF000086000F0DEF8142000F02CF94FF6FB50DA
:1020000000F0D7F8142000F025F94FF64A3000F020
:10201000D0F8142000F01EF94FF24A7000F0C9F811
:10202000142000F017F94EF64A7000F0C2F81420A0
:1020300000F010F94DF64A7000F0BBF8142000F0E3
:1020400009F94BF64A7000F0B4F8142000F002F9D8
:102050004FF4FE4000F0ADF8204600F0FBF84FF6DC
:10206000046000F0A6F8142000F0F4F84FF6FD50DC
:1020700000F09FF8142000F0EDF84FF6253000F046
:1020800098F8142000F0E6F84FF2257000F091F86F
:10209000142000F0DFF84EF6257000F08AF81420C6
:1020A00000F0D8F84DF6257000F083F8142000F009
:1020B000D1F84BF6257000F07CF8142000F0CAF837
:1020C0004FF4FE4000F075F8204600F0C3F84FF6DC
:1020D000026000F06EF8142000F0BCF84FF6FE50DD
:1020E00000F067F8142000F0B5F84FF6923000F0D9
:1020F00060F8142000F0AEF84FF2927000F059F83A
:10210000142000F0A7F84EF6927000F052F8142058
:1021100000F0A0F84DF6927000F04BF8142000F09B
:1021200099F84BF6927000F044F8142000F092F801
:102130004FF4FE4000F03DF8204600F08BF8002000
:1021400000F076F810BD00BF08B501220521104649
:10215000FEF7FAFB00231A4605210120FEF736FCA4
:1021600001220B210020FEF7EFFB00231A460B2172
:102170001846FEF72BFC012206211046FEF7E4FB71
:1021800000231A4606210120FEF720FC08BD08B5F1
:1021900001220B210020FEF7BBFC0120FEF7C6FD4B
:1021A00000220B211046FEF7B3FC0120FEF7BEFD16
:1021B00008BD38B505460F240BE045FA04F202F0DD
:1021C000010205210120FEF7A3FCFFF7E0FF013C1F
:1021D00064B2002CF1DA012206211046FEF798FCC9
:1021E0000120FEF7A3FD002206210120FEF790FC4E
:1021F0000120FEF79BFD38BD024A136823F004035B
:102200001360704710E000E0044B00229A605860B1
:102210001A6842F001021A60704700BF10E000E047
:10222000024B1868C0F30040704700BF10E000E0A8
:1022300010B1012806D07047054A136843F0020325
:1022400013607047024A136823F00203136070475B
:1022500010E000E010B504460120FFF7E9FF600040
:10226000FFF7D2FFFFF7DCFF0028FBD0044B1A6812
:1022700022F001021A6000225A609A6010BD00BF6D
:1022800010E000E0024B58689B68C01A704700BF1E
:1022900010E000E008B5064A136823F0010313605C
:1022A000044B1960FFF7B0FF034B01221A7008BD01
:1022B00010E000E0840100208101002008B5064BF9
:1022C0001B6823B19847054B1B78012B00D008BD34
:1022D000014B00221A60FAE78401002081010020EE
:1022E00010B50446012200211046FEF711FC2046DD
:1022F000FEF734FF10BD10B5044600221146012040
:10230000FEF706FC2046FEF729FF10BD08B50122A6
:1023100011461046FEF7FCFB6420FFF79BFF0022EE
:1023200001210846FEF7F4FB0120FFF793FF01228D
:1023300011461046FEF7ECFB6420FFF78BFF0022EE
:1023400001210846FEF7E4FB6420FFF783FF01222A
:1023500011461046FEF7DCFB0948FFF77BFF112012
:10236000FFF7C9FF0748FFF775FF3A20FFF7C3FFE4
:102370000520FFF7B5FF2920FFF7BDFF08BD00BF0F
:10238000C0D40100F049020038B505462A20FFF705
:10239000B2FF0020FFF7A4FF0020FFF7A1FF0020FD
:1023A000FFF79EFF7F20FFF79BFF2B20FFF7A3FF88
:1023B0000020FFF795FF0020FFF792FF0020FFF7B6
:1023C0008FFF9F20FFF78CFF2C20FFF794FF002446
:1023D0000EE035F814006FEA1020C0B2FFF780FF5E
:1023E00035F81400C043C0B2FFF77AFF0134A4B23D
:1023F000B4F5A04FEDD338BD10B5134B00221A70C1
:10240000124B1B7863B912491248FFF743FF0F4B79
:1024100001221A70104B1B78DBB2322B12D010BD88
:10242000FFF730FF0C4C2378DBB240080B4A42F830
:10243000230007490748FFF72DFF23780133DBB25C
:102440002370E7E700BFEAE75702002055020020AB
:10245000B5250008A0860100540200208C01002050
:1024600008B50378012B00D008BDFEF781FEFBE71D
:1024700010B504462378012B38D14FF6F860FFF7EA
:1024800098FE44F62060FEF751FC4FF62450FFF70B
:1024900090FE44F62060FEF749FC4FF62230FFF72D
:1024A00088FE44F62060FEF741FC4FF22270FFF7F1
:1024B00080FE44F62060FEF739FC4EF62470FFF7EC
:1024C00078FE44F62060FEF731FC4DF6F870FFF719
:1024D00070FE44F62060FEF729FC4FF43F40FFF702
:1024E00068FE44F62060FEF721FCC3E710BD10B57E
:1024F00004462378012B38D14FF6FE60FFF759FED2
:1025000044F62060FEF712FC4FF69250FFF751FEA2
:1025100044F62060FEF70AFC4FF69230FFF749FEC2
:1025200044F62060FEF702FC4FF29270FFF741FE86
:1025300044F62060FEF7FAFB4EF67C70FFF739FE9A
:1025400044F62060FEF7F2FB4FF45F40FFF731FEE8
:1025500044F62060FEF7EAFB4FF43F40FFF729FE08
:1025600044F62060FEF7E2FBC3E710BD0F4B1B787B
:10257000033B102B19D8DFE803F0091818181818B6
:102580001818181818180D1815181100084B0122E2
:102590001A707047064B02221A707047044B0322D0
:1025A0001A707047024B04221A70704756020020BE
:1025B0008801002008B51F4B00221A701E4B1A68B4
:1025C00042F20F739A422DD91B4B1A6843F6982397
:1025D0009A4227D8002309E0012202FA01F11548A6
:1025E000027822EA010202700133DBB2072B17D80E
:1025F000194603F11100104A52F82020B2F5FA6F83
:10260000EAD30D4A52F8200040F6FC029042E3D88B
:1026100001229A40074801781143C9B20170E3E7EB
:10262000FFF7A4FF0023054A1370034A1360044A0E
:10263000137008BD560200208C01002055020020B6
:102640005402002008B5FEF70FFD00210846FEF7F2
:102650001FFD01210020FEF71BFD0E210320FEF7C8
:1026600017FD00210220FEF713FD01210220FEF7D5
:102670000FFD02210846FEF70BFD0C210320FEF79B
:1026800007FD012211460020FEF75EF9012202211A
:102690000020FEF759F9012203210020FEF754F92A
:1026A00000231A4601211846FEF790F900231A4626
:1026B00002211846FEF78AF900231A46032118461C
:1026C000FEF784F9002211461046FEF73DF901227B
:1026D00000210846FEF7DAF9012200211046FEF734
:1026E00033F9012211461046FEF72EF900231A464F
:1026F00019460120FEF76AF900231A46012108460F
:10270000FEF764F9022204210020FEF71DF90222DF
:1027100005210020FEF718F9022206210020FEF70D
:1027200013F9022207210020FEF70EF905220421E9
:102730000020FEF729FA052211460020FEF724FAB0
:10274000052206210020FEF71FFA0522072100209E
:10275000FEF71AFA00210846FEF776F85948FEF708
:10276000D1F800210846FEF789F801210020FEF784
:102770009DF80620FEF7B4FCFFF73EFDFEF762FA77
:10278000FEF7B6FAFEF70AFBFEF7BCFCFFF7BEFD4C
:10279000FFF7DAFCFDF7C4FF0020FFF749FD19E061
:1027A000002201211046FEF7B3F900220221104653
:1027B000FEF7AEF9002203211046FEF7A9F94248C0
:1027C000FFF7E2FD414801230370FFF749FE0020B7
:1027D000FFF72EFD3E4B1B78013B032B70D801A267
:1027E00052F823F0A1270008F5270008392800082F
:1027F0007D280008012211460020FEF789F90022F9
:1028000002211046FEF784F9002203211046FEF74C
:102810007FF93048FFF7B8FD2C4C01232370204688
:10282000FFF726FE224649F664312B48FDF7D2FF1A
:102830000020FFF7FDFCCDE7002201211046FEF746
:1028400067F9012202210020FEF762F9002203212C
:102850001046FEF75DF92148FFF796FD1B4C01235A
:1028600023702046FFF743FE22464DF2B2511C482A
:10287000FDF7B0FF0020FFF7DBFCABE700220121F2
:102880001046FEF745F9002202211046FEF740F9F6
:10289000012203210020FEF73BF91048FFF774FDE9
:1028A0000A4C012323702046FFF721FE22464DF2F9
:1028B000B2510B48FDF78EFF0020FFF7B9FC89E706
:1028C00000BF87E7F923000848E402085702002008
:1028D0008801002048440208E4A80108E40801082F
:1028E00030330008014B1868704700BF1400002007
:1028F00030B5141E05469BB0184605DA8B232B60B5
:102900004FF0FF301BB030BD4FF40273ADF80C3008
:1029100014BF04F1FF332346029305934FF6FF7370
:1029200000910491ADF80E3002461E9B6946284680
:1029300000F072F8431CBCBF8B232B60002CE1D04D
:10294000009B00221A70DDE707B5009313460A4684
:10295000014603480068FFF7CBFF03B05DF804FBB6
:10296000140000202DE9F0478E689E4282460C46F6
:102970009046994637D88A8912F4906F31D02568ED
:1029800009696F1A6569022305EB450595FBF3F5A7
:1029900009F101033B449D4238BF1D46530530D524
:1029A000294600F07FFB064650B90C23CAF80030D8
:1029B000A38943F04003A3814FF0FF30BDE8F087C7
:1029C0003A46216900F0FCFAA38923F4906343F0AE
:1029D0008003A381266165613E44ED1B2660A560EE
:1029E0004E464E4500D94E4632464146206800F0DC
:1029F000F2FAA3689B1BA36023681E442660002094
:102A0000DCE72A4600F0A8FB06460028E2D121694F
:102A1000504600F0F9FAC8E72DE9F04F9DB0804626
:102A200003938B891D060C4616460FD50B696BB9AF
:102A3000402100F037FB2060206128B90C23C8F842
:102A400000304FF0FF30C7E040236361002309935B
:102A500020238DF8293030238DF82A304FF0010BD8
:102A600037463D4615F8013B0BB1252B3ED1B7EB60
:102A7000060A0BD05346324621464046FFF772FF06
:102A8000013000F0A480099B534409933B78002B4C
:102A900000F09D8000234FF0FF32CDE90523049321
:102AA00007938DF853301A932F46052217F8011B10
:102AB0004F4800F035FA049BD0B9D90644BF202214
:102AC0008DF853201A0744BF2B228DF853202A7803
:102AD0002A2A15D0079A2F4600200A25394611F8D0
:102AE000013B303B092B4DD9B8B10FE02F46B8E779
:102AF0003F4A801A0BFA00F0184304903D46D3E792
:102B0000039A111D12680391002A01DB079204E069
:102B1000524243F00203079204933B782E2B0CD1D0
:102B20007B782A2B33D1039B1A1D1B680392002B41
:102B3000B8BF4FF0FF33023705932E4D397803228B
:102B4000284600F0EDF938B14023401B03FA00F0AD
:102B5000049B034301370493397827488DF82810E4
:102B600006227E1C00F0DCF9002838D0234B13BB72
:102B7000039B073323F0070308330393099B4B445C
:102B800009936DE705FB023201200F46A6E70023FB
:102B90000137059319460A25384610F8012B303ABB
:102BA000092A03D9002BC8D00591C6E705FB0121EE
:102BB00001230746F0E703AB00932246104B04A91C
:102BC0004046AFF30080B0F1FF3F8146D6D1A389E4
:102BD0005B063FF536AF09981DB0BDE8F08F03AB3B
:102BE00000932246064B04A9404600F081F8EAE72C
:102BF000488403084E840308528403080000000040
:102C0000652900082DE9F04791461F468A680B693F
:102C1000DDF820809342B8BF1346C9F8003091F820
:102C2000432006460C4612B10133C9F80030236830
:102C3000990642BFD9F800300233C9F80030256840
:102C400015F0060507D104F1190AE368D9F8002048
:102C50009B1AAB4228DC94F843302268003318BF3B
:102C6000012392062DD404F1430239463046C04771
:102C7000013020D02368E568D9F8002003F006036E
:102C8000042B08BFAD1AA36822690CBF25EAE575BD
:102C900000259342C4BF9B1AED184FF000091A3467
:102CA0004D451AD1002008E00123524639463046EE
:102CB000C047013003D14FF0FF30BDE8F087013548
:102CC000C3E7E1185A1C302081F84300224494F8ED
:102CD000451082F843100233C5E7012322463946E6
:102CE0003046C0470130E6D009F10109D8E70000BD
:102CF0002DE9F04301F1430C0C46097E85B06E29A5
:102D00001746064698460C9A00F0B38022D86329ED
:102D100036D00AD8002900F0B980582900F0838005
:102D200004F1420584F8421032E0642901D0692997
:102D3000F6D120681368050603F104012AD51B6843
:102D40001160002B03DA2D225B4284F843206F4888
:102D50000A2239E0732900F09D8008D86F2920D01D
:102D60007029DDD1236843F02003236003E0752937
:102D700017D07829D4D1782384F84530644855E0B9
:102D80001368191D1B68116004F1420584F8423074
:102D900001238CE01B68116010F0400F18BF1BB2BC
:102DA000CFE713682568181D1060280601D51B6839
:102DB00002E06806FBD51B8854486F2914BF0A221D
:102DC0000822002184F843106568A560002DC0F238
:102DD0009580216821F004012160002B3DD1002D58
:102DE00040F08E806546082A0BD12368DB0708D5A2
:102DF000236962689A42DEBF302305F8013C05F181
:102E0000FF35ACEB05032361CDF800803B4603AAF8
:102E100021463046FFF7F6FE01304DD14FF0FF302E
:102E200005B0BDE8F083394884F84510136821687F
:102E30001D1D1B6815600A060BD5CA0744BF41F06B
:102E4000200121601BB9226822F02002226010229A
:102E5000B7E74D0648BF9BB2EFE76546B3FBF2F11B
:102E600002FB1133C35C05F8013D0B460029F5D187
:102E7000B9E7136825686169181D106028061B688A
:102E800001D5196002E06A06FBD519800023236191
:102E90006546B9E71368191D11601D686268002155
:102EA000284600F03DF808B1401B6060636823616C
:102EB000002384F84330A7E723692A463946304681
:102EC000C0470130AAD023689B0713D4E068039B56
:102ED0009842B8BF1846A3E701234A463946304610
:102EE000C04701309AD00135E368039A9B1AAB4280
:102EF000F2DCEBE7002504F11909F5E7002BACD172
:102F0000037884F8423004F142056CE759840308E1
:102F10006A840308000000000000000000000000B8
:102F200001F0FF01102A2BDB10F0070F08D010F87A
:102F3000013B013A8B422DD010F0070F42B3F6D17E
:102F4000F0B441EA012141EA014122F007047FF097
:102F500000070023F0E80256083C85EA010586EAEE
:102F6000010685FA47F5A3FA87F586FA47F6A5FA2A
:102F700087F68EB9EED1F0BC01F0FF0102F0070236
:102F800032B110F8013B013A83EA010313B1F8D1E1
:102F90000020704701387047002D06BF35460338C2
:102FA000073815F0010F07D1013015F4807F02BFFB
:102FB000013015F4C03F0130F0BC0138704700BF4C
:102FC00010B5431E0A44914200D110BD11F8014BC7
:102FD00003F8014FF7E7884210B501EB020307D869
:102FE000421E99420AD011F8014B02F8014FF8E74E
:102FF0008342F5D98118D21AD34200D110BD13F8FB
:10300000014D01F8014DF7E738B50546002945D0D7
:1030100051F8043C0C1F002BB8BFE41800F0D2F8A4
:103020001F4A1368104633B9636014602846BDE830
:10303000384000F0C8B8A3420CD921686218934206
:1030400004BF1A685B68636004BF521822600460A2
:10305000ECE713465A680AB1A242FAD9196858181F
:10306000A0420BD120680144581882421960DDD17A
:10307000106852685A6001441960D7E702D90C23DE
:103080002B60D3E7206821188A4204BF1168526878
:10309000626004BF091821605C60C7E738BD00BFEB
:1030A0005802002070B5CD1C25F0030508350C2D05
:1030B00038BF0C25002D064601DBA94203D90C239D
:1030C0003360002070BD00F07DF8214A146821466D
:1030D00091B9204C23681BB9304600F063F820609A
:1030E0002946304600F05EF8431C24D10C2333609F
:1030F000304600F068F8E4E70B685B1B18D40B2B34
:103100000FD90B60CD50CC18304600F05CF804F1BC
:103110000B00231D20F00700C31AD3D05A42E250FF
:10312000D0E78C424B6816BF636013600C46EBE738
:103130000C464968CCE7C41C24F00304A04205D027
:10314000211A304600F02EF80130CFD02560DBE7A1
:10315000580200205C020020F8B5074614460E46CF
:1031600021B91146BDE8F840FFF79CBF22B9FFF72F
:103170004BFF25462846F8BD00F026F8A0420FD2A6
:1031800021463846FFF78EFF05460028F2D031462B
:103190002246FFF715FF31463846FFF735FFE9E7CE
:1031A0003546E7E738B5064C002305460846236058
:1031B000FDF738F9431C02D1236803B12B6038BDF9
:1031C000600200207047704751F8043C181F002B24
:1031D000BCBF0B58C0187047537461636B20667294
:1031E000616D653A0A000000205230203D20202504
:1031F0003038580A00000000205231203D202025A0
:103200003038580A00000000205232203D2020258E
:103210003038580A00000000205233203D2020257D
:103220003038580A0000000020523132203D20255D
:103230003038580A00000000204C52203D20202544
:103240003038580A00000000205043203D2020253F
:103250003038580A0000000020505352203D2025ED
:103260003038580A000000004653522F4641523A67
:103270000A0000002043465352203D2020253038CC
:10328000580A00002048465352203D20202530385F
:10329000580A00002044465352203D202025303853
:1032A000580A00002041465352203D202025303846
:1032B000580A0000204D4D464152203D202530380F
:1032C000580A00002042464152203D202025303837
:1032D000580A00004D6973630A000000204C522F09
:1032E0004558435F52455455524E3D20253038587D
:1032F0000A0000005B486172644661756C745D0A87
:10330000000000005B4275734661756C745D0A00D5
:103310005B55736167654661756C745D0A000000FA
:103320000000000000000000010203040607080975
:10333000998C5B4E5B7E8F9D9F97857166687786C3
:10334000897B64545E728CB2B4956F585E7492A798
:10335000A9A58C6B665D648C9C87755A4B5C899EB5
:10336000926949484C5A93CDCCDCE8BE8E62342E2B
:103370004B6E514F81AED6EDE9B4732116384958E2
:1033800081B4B6B29D8682868D79533D4E6DA3D0B1
:10339000CDB17E474B6E81989FA3988077615B7219
:1033A000877B6652465E7FA8BDA8755D596E88937F
:1033B0009E9F9A7D6B61708E8F8E806A6D768FABCB
:1033C000A88D5A3C51738CA5A19B8E7870697C8A1C
:1033D0008B7C5E5C6B7FA5BBA88B6246628498A4E5
:1033E0009E9C8571656A7E87826A5960768DB7BCBE
:1033F0009C76504C6782989C9C937C71697F9292DA
:103400007F6A5C6984A4B99F764E455C7D96A9A8C5
:10341000A78D74646A808B87695257728BB8B49297
:1034200069485170899A9EA0967D6A627A8A907ED8
:10343000685A738AAFCAA57A4A3E5C7D9AA4A19E57
:10344000826D5B6C848E84624F597DA4CDBA92608C
:103450004557708B9D9C9C887767677F8B8B7257D5
:10346000526E8EBFBC976F4950647E97A0AB9C8212
:10347000726B7E898E7B6057667FB1BFA17B53558F
:10348000687F989DA6987D685B737F857B67607178
:1034900084ADC0A67F55555D6E83889797877C6CF9
:1034A00077888C7F6D616F7DA3B49A815A5B6A794E
:1034B0009095A29F897A6A737B8379675F7081A8F0
:1034C000B9977C5A657483958F9A93816C5E6C74FE
:1034D0007F7368637B8EAABB9877505B70859793E8
:1034E000A196867061697381766C647A91B2B390AB
:1034F000734E5A6D84968EA19A8E7E6B75737D7510
:1035000069698293B6B68B68495B6782938D9E9793
:103510008F7F717068695D5A5F8297BABF947350EC
:10352000657388968B9C908D888080746A575358F9
:10353000849AC1C094744C61718791838C7F7E8022
:10354000898F8376544E517C93BDC492724B5D6FCC
:10355000889487907F7E7F879B8C7E5A4C456F8AAC
:10356000B1C3987E50626F899A8C9178716F7F9702
:10357000998F6A5D4D6C82ACBE9687566372889F48
:10358000989F7E6F666B878A8D6A5A4B6A7999BA63
:1035900092885E6875839B92A287766C6C81859118
:1035A0007B73607C859BB3877C5062717C94899C23
:1035B0008881777284808D7976687F8597A5767407
:1035C0004F677C90A392A1817D6F69706B75626E6D
:1035D0006C9299B0B7806E4764758CA594A17D7A82
:1035E00070758174795A6464949FBDBA836C3B5E34
:1035F0006A8CA29FAF8684737C82787A5C5D5A8ADB
:103600009AC4B8896C3C57597F8C94A37F8271818E
:1036100083807C61615B8694CCBE997A4C6A5F85BD
:103620008896A5818D72827979725B5E5A7F87BF99
:10363000AD997B5C7469908598947B826B8276816E
:1036400073646469888FBD9E956D5B70658E7E9B8B
:103650008B747A6B8A7A8D79726B6E8791B590894B
:103660005B5E6B6A9A8FB799867A66807186737390
:103670006E7C859BB08883526C6F7A968CB68681FF
:10368000675B6C617A6976738988A9A8857C5070BC
:103690006A85979EBC928E6A676965716774759337
:1036A0008DB6A689744D7263878A9AB0898F696EC8
:1036B000656468626D769897C09E8D674E6D618E69
:1036C00088ACAD9C9C767E6569585A57678188BAEC
:1036D00094906159695F918AB4A99B9479836B77BF
:1036E000646861768293C19E9C6566635C7E7BABF9
:1036F000969483757E69766573657C7E92B29397A6
:10370000626E5D617B7DAC959C897F7D6D78687212
:1037100066817997A4898C627A6373818AAB939E60
:10372000848071656F67766E8E83A1A189815A74DA
:103730005D72798CA7939F84826D636565747390C5
:1037400089AC9F8D7E5C725C787A90A5929C827E1B
:10375000625B5B5E6E7A9897BFA9987C636C5272CD
:103760007094A09DAD97916E625A5D636E878CB127
:103770009E947361634E6A6B9198A0AF9D946D6443
:1037800053565F6F8995BFAEAB87746B51645E848F
:103790008796A89B97736C56545B6F8492BEB2B0A9
:1037A0008E7E6E505E597A7F94ABA7A68076595074
:1037B0004D567081B1AFB79B8A7E555C4F7074894E
:1037C000A8A5AF8B86665A524E656DA8A6B8A59679
:1037D0008F5D634865697BA1A5BB99987B6A5E4D47
:1037E0005D5B9398AEB0A5A97673545B585E7E80FE
:1037F0009E8E93837A725B605C81819AA3ACB28F58
:103800008F6D725F6372758D7F90838582727B7816
:103810007D737A848B8A8987817D7585828C8B867E
:103820008673776A6C727D86818A8B938F8C877A98
:10383000766872767E8280897A7C716F787C8782E6
:1038400089838988898D8285747A77808682887D4C
:103850007C6F71747F85848C868984878687867A5D
:103860007B777D7F8688828072716C757E81857E94
:1038700081797B7B7D8580827E898B8E958D83731C
:10388000716C7178828A82847F807C80827F847A66
:10389000817F8689878371746E757A85918D8D831A
:1038A000847B7A7A7577767D7E8691938F847A7120
:1038B0007274797E7F817B7B797E7F7A7C77808151
:1038C000868F9090837E7573767E85868A878784BF
:1038D00084847D787372747D858A8B89817B787608
:1038E0007A7D82807F7F7E868686817A75717580FB
:1038F000878686807C787C7E8185848480848788A6
:103900008A8580756F72788186888683827F8282BD
:1039100084807B7773797C86888781797A7C8689B5
:103920008C85807E7B79777F7E807E8082848A8A88
:103930008C80756F6E70757B7F83818586858280B4
:10394000807F828385888989877F7A797A7B808264
:10395000868883858380767173737B7C8485868378
:103960008082797A787A7C8386898C898A817A7256
:10397000777C80807A81808083817D77777B829657
:103980009A9A978A837D6B6163707D7E82828B8930
:1039900085847F79716F6C6E7478807B7E8E98A23F
:1039A000A4A7A09B8386857D826E6E646E6E6C6913
:1039B000657B73776C6D758485747E6E898D869357
:1039C0008C9FA69A89887B888E877D897E6B857679
:1039D000898D7677777484837D8577756E5E6B7954
:1039E0007A867F81837F857F858280837B7F7A7CD7
:1039F000868B88887F78828189867D7A8489818593
:103A00007D7D867C767673828E969B8F878282827E
:103A10007B706B7372797B76767A76797A707E7941
:103A20008E9F8789787380797D80848C908B89863E
:103A30007F8380726A6D70818C8D90827D7C7B7DAE
:103A4000868B8D93887D7975757D7E7976767B877B
:103A50008988837C7E7976757B838484817A7A7E7B
:103A600084838280797D7F87888A8C858582827F26
:103A7000838283817A7B757B807F7B746F707076A5
:103A80007F848B8A8E898A878188858D898A8982BD
:103A900089807671666A6A71797B807C86807E7A9D
:103AA00077818089898688868B8A858179797D83EB
:103AB00088878A83847E77766F777981817C7D7A27
:103AC0007E827F7C79797E7E86868C8D8C908689BD
:103AD00081868384817373686D6F6E6C6A6C787C89
:103AE00084898C9290948A8A83878989938A8B832C
:103AF0008085807B726A6A666B6B717979817B8362
:103B000080858D8F9C939287828482837A7877795F
:103B10007E8081817E847D797168736F807E7B7AFF
:103B20007582838A868287858989868A858E8D8932
:103B3000857C837F87857E766D71747675707173F1
:103B400074787883879495919081898288887E7F24
:103B500074787B7C7D797776707270777E818D88C2
:103B60008B8184888693898B857F827B7F7A75732E
:103B70006E72727D81858E86877978797A87848660
:103B8000818083878888807C757779778079867F44
:103B9000817C737C778987857F787C7F837D7B7749
:103BA00075787A80898891918E8A7E807B83827AEB
:103BB00077737B7F7F817B7A77767E7C8483898D28
:103BC0008B8C8085808586807F7979777875737214
:103BD000717178777F8387918A9286888485918BAB
:103BE00090888786817F7774726E706E7577778123
:103BF0007E87838082818E8F8E8880817F807F7E8A
:103C0000827D8181838880877E80766E7270807FDE
:103C1000847D787A7D828482817F7F827F89858D91
:103C20008B888B828A878F90898274716E70706C9A
:103C3000706E72777984838989898D868A878A8E66
:103C4000878578787A777D777A76737B7683807FBD
:103C5000817C827F8584888D888D8280817E817C35
:103C60007B797479767F807B807982818184818A77
:103C7000878A847D7F7E807E7C7C777976797C796B
:103C80007D7D8888878584868A84857C7F7C817B0E
:103C90007F816F976C747A6D8A747B7573787B7D86
:103CA00079858EA0A89A99A194887D737276685CB4
:103CB0005E5F7E78989A7F7A74968A806C58606B83
:103CC0007A898E91888D999794898791928C76764E
:103CD0007E7271626F6F757D828781877A73707073
:103CE000728091898A89898E7F8D8F8B817E77738F
:103CF000837B756964697A8A9293928E847D7983D5
:103D000078777E85897C7E7C7F7C7A777876737FF6
:103D1000848479747982807F8A999C998E857D7953
:103D20007B7C7978787C77787E727D71787C7E84F4
:103D30007C8782867674777A878D958E8D8B7F7E51
:103D40008183837D817B7B7A7B7E7B7D6E6C707DC6
:103D50008A87867F7774717B848D92879191918C0D
:103D6000858F858478777A75787470676A676F78DD
:103D700082888A8B8D8E87897F8B878D88808A7ECB
:103D8000847D7B76737975767A767E747477797EA6
:103D9000798A8B95908586848C89898583837A72CC
:103DA00076727F7E7A7E788478817F818172797461
:103DB0007F7F87827F827B7F85898D908E8C8286B4
:103DC0007E807972766A73777E85858278777A7855
:103DD0008182888A81867F8981878E899382817C8E
:103DE0007F7D776E676A6D72747C7C8A878C898E22
:103DF0008D84918994867E7D7A807B7B71747B76BD
:103E00007A76717B7781797C827C8B88918C8185B5
:103E1000858B918B857E7E80798078837F7B786BA4
:103E2000796B7C73777F707E7A8C8F8B857B7E79C4
:103E30007B80858F959390878C8082807E81707344
:103E40006E71746F6C676A7276878C95978D9083AC
:103E500090898A8B839284817F81857F7568676B67
:103E6000707676787B747B77838A89958C98928834
:103E7000877F8D8981776F7877817D777871787189
:103E80007B7F7A857B8783818480878583807F871A
:103E90008C8B9085867E7F827B86777C75747C7226
:103EA000776E7579797C7780838488858B898A8918
:103EB0008691888986848E867F736E767778736F15
:103EC000726F75747A81808A808E8D8B948B9A90B4
:103ED000897E737D7F837B727272777B7D7F7A7F31
:103EE000787D85818A8286847F7E78848A8F897CAA
:103EF0007B7980807E8377797477847E87808485E0
:103F000081867C8282838176797A7E84848B8583A4
:103F1000827E8983817A757C7A807E7E7F7D7F76C2
:103F200074757981808A8A88877C8A83817F778487
:103F3000818C847F817F827675747579787F8381A7
:103F4000857E84848285818B8C8C887F7C77797652
:103F5000747776777A7C827E7E757981818E8F9870
:103F600097938C807D787C7B7774737172787D7C7D
:103F70007A77757F808585848780817B80868D9325
:103F80008B867F7F7D7D7E7B787576838A8E8D881C
:103F9000867C796F7075787A757170737A80828596
:103FA000828587909694908A8B8281817C7B7C7BB2
:103FB000796F625C4B44566A8383798A888FA999AA
:103FC0009DB09C9E94888C918D8A92958C7B8084E8
:103FD0007C768B9183877F7A847D737B847B7578F5
:103FE000766D656A6B7D7D7882838D8681755F5F76
:103FF000605C565D667082827F7C7E7B7588929560
:1040000095939A9A9D969A9E8F8E8E8A7A797365E9
:104010006960656C677492A79596A49D9797A49F15
:10402000999692947E726959463F4A403D4860692C
:1040300061707A7C758CABABAFB7C1B4A5A6A39306
:104040007C7B7B6B666B695A58636A646680959269
:1040500091ACAE9C9CA59F8F959B9588817F6B565C
:1040600054584D4752616663708281758390888988
:1040700097A08E919F95867D82756F71736F657223
:10408000737D80808C9296909F9F94989899868C4F
:1040900094888887836B6D6D646060635F737877E5
:1040A000828A8A828E8B858483837478796F6F7716
:1040B0007662686A686A6E716F807E808C97959A66
:1040C000AEA7A5A4A69E949C93817B82776F7B75F7
:1040D0006B68706C6E79747D83888287928A8C8518
:1040E0008475707B7975757B655B615C5A5B656413
:1040F000747B7A8A9495919D9F999EA8AC9EA3A16A
:104100008B80827B676D6F676970727888817E892A
:104110008D8B96A39D9B98978A81867E7574756218
:10412000595C504749484458636B7F8F9293A39FD3
:104130009D9D9F9D959F9C938F938570716B5F65EF
:1041400072737A837E849094949E9F979B97978EA8
:10415000919180777875636A6F635C5F585867697F
:104160006E7B84808A978E8F8D8C7C79837C7A801D
:104170008A776D756F6A737C80898A8B98A19FA0FE
:10418000A69A9495938E8A958F8382887A6B73739F
:10419000656264636C6E6D777E777C8986818586C7
:1041A0007B727A776E70807B6E7477716F74737EBA
:1041B00081818D9D9A97A9A496999B8E81908E82DC
:1041C000848F8D7A7A786D676C69757E757C878649
:1041D00080909382868A836F79816C6871725D6149
:1041E0006A696A707073807A7F91928993A09191C5
:1041F0009F9E8B8A98877D87937F7A84787173746A
:1042000074828078888D85899C9080888A7C71866C
:104210008171747E71616A665E6366637077707CBB
:104220008D857E9295868E958D7E8A9182828F8FE6
:104230007C7E7E7370737077827B819597919DA74A
:10424000948E96917F7F8C7D737C816E6A6E635EA7
:1042500063616576757181897D83968F848E928086
:104260007B8C887B818B7C7177736F74736F7E809E
:10427000788697928DA1A08F949E94859294838244
:10428000908E7E807A6F6C6B646E7A6E72807F6FB8
:104290007C8A7976807F6F7588817A85897A767A4B
:1042A000747276717183807A8A978A869B948892D9
:1042B0009C8D82918E8085938C80827C7674736DC8
:1042C000787F717787877B8E95827F88826F7783EF
:1042D00078737E81716C6D666264626577787685CD
:1042E00090858699948B959D8F88979384869188E5
:1042F0007B807D777A7B757E857B7E8F8E8293999E
:1043000089878F86737880726E7B81736E71666029
:10431000626062757773828D8485978E80868A80CD
:104320007A8C8F7F838C837076776F7176727C87BF
:104330007F8394948997A091939C958688927F77A8
:104340008185736A6E625A5A5855656863768481AE
:10435000869892878F8D847E8E9182869189767BD6
:10436000786D6C6F6A707F74778989818E9A8E916F
:104370009B998F909C8C828A8D7A757B706D6C670F
:104380006372716A79847C7F908A7F858478707C7F
:104390007E73798783707672686A6B667281777FC5
:1043A000919288969E8F8D9391878C9B8E858B8F13
:1043B0007A73796E6B6C69667A7772838E84809477
:1043C0008D848C8C84778483747885806E76726714
:1043D00064635863726672868B84949C8D8F93910C
:1043E0008489978A8691967F787C6F6B70717088CC
:1043F000877F8D968C899B91898D8C84788781723B
:10440000727C7363716F6A6C6D646E7C717A8C9070
:1044100086939C8E8F8F8D7D7D877976828C787345
:1044200074656266676986898697A29C97A69C9246
:10443000908F8A8091918482897C676D68606065C5
:104440005B68756A7281867B8990878E9293858678
:104450008D7F7781887574776E686B65637A737307
:1044600084918D93A59C989B998D86948F83879436
:10447000847479716765675D71776F7A88888195D3
:10448000938A8E8E8B7D86897B747E7E6666686459
:104490005F665F6A7C737E8F968B99A394979895DD
:1044A00087879389828A98847B7C746A696868802C
:1044B0007776848C828497888588867D7687857DCB
:1044C0007D897E6B6F6D6A66686378786E7E8A869A
:1044D000809690848C8C887A84897E7D8C93808170
:1044E000817E75746D7A85778492918699A08C8C83
:1044F0008D88797C897D767D87716764625E5F5E79
:10450000698172788D917F889D88859090827C8E5C
:10451000877C7F8D7F717474726D6C6C887B768DF7
:10452000988B89A89A8B93958A7A8B8D807D8C88BD
:1045300073716C6B62625E7B7E6F86968C7B9794E8
:104540007A7E85816D79887C77878D767470736DBE
:104550006D667E8D72839796829AAC90909A9B83BB
:10456000819384767F8D767170706D69616E866BD4
:10457000738E927D87A38C808A8E796F8984767EF4
:10458000927F7272706C6462668370708C948281A8
:104590009F90818B958C7D93968686958B76737094
:1045A000726B686F9080738E97847B99907B7E8509
:1045B0007F6778827573858673757779726A688884
:1045C000806D8A9D90839F9D84868B89717A887C7B
:1045D0007A898D78747173706B698C8E768C9F90EC
:1045E0007E9899807F85846E7482746D7980706AFC
:1045F0006E73736B64858B72829A8D7990968184C9
:104600008C8B7579888079878E7A707074717069F7
:10461000897C5A64858C7892B1B4ADBBC0AEA2A43B
:104620007E41444C26203B697791A2C8D3B9A88E1D
:104630007C505866636378A3AFAAAE998488887665
:10464000584246435D5C5A8A787FA2B39798AE8CF5
:1046500088908F7B747D77787F8879787C7B797E72
:104660006D7C93707180796A87957774848C74748B
:1046700089847F84886F6B77675B6263809A7C80B4
:104680009F947B92A0878385826F738E837D909F9A
:104690008978797F766A67818863718E937A83914E
:1046A0007B7C838879768B8C81828C7F6F6C716C3C
:1046B0006E656F86717C9AA084899D7E757D8774F6
:1046C00068827D7987988C7E7C807B746D7F8D710C
:1046D0007B93967A84A28C7C7C80716575767276E9
:1046E000888476727A78726B7B9B8181989E8987A9
:1046F0009D8A7A797F756170706D737F7666677554
:104700007B767385A48F8D9FA38A8AA494828689E1
:104710007C6C7B80797E8D836E656B6C6861688450
:104720006A67889D8E8EAFA3918B87766270747452
:104730007685897F78787368636987776F87988AC9
:1047400086A597878A908575848580828D826D681D
:104750006F7575737A99857B8D967F77988E7B7F41
:104760008882707D7C716F7F816F6B70736C6A6DF6
:104770008A80778FA09285A29C8683837C6A7C84C2
:1047800080828F8E766E706C6465698B867D91A158
:1047900095849C927A7D847F6B797E777C8B8E78F2
:1047A000757A7C74706E89816F7F8E84769797801E
:1047B00081867E676E756B70828C807C81837B774F
:1047C000768F8A7E90A098859A99838285816C7570
:1047D0008075737B7F6B646569676C73939686964F
:1047E000A3988195988083898A787A8577747B836A
:1047F0006E65696A63615E748574839A9E8CA1B3E9
:104800009A92928C756F7E76768495867A7A776C9A
:1048100067606A81707B939F8E93A68E8384817379
:104820006A7E78747D897F6F72706B6A696F8C8124
:104830007B8C968482A0958B93958A757F7C6F7212
:104840007F7D6E76777675746C85827183958D81A8
:104850009D9C86888C87757F8D82868E9179726803
:104860005D595A546F8572839A957988937C7A85BD
:10487000887D7D968D8A9098877B7B71726F686E3C
:104880008A74708B958287A1908086857766777A07
:104890007482919385877B7771655F807E6E889B3C
:1048A0009085A09B8080837A666F7E6F757E86760A
:1048B00075717377756F8596798598957E8FA38DC1
:1048C0008B9390807486777075807C73727077712B
:1048D0006770897271899281859F8F7F88867B6CD2
:1048E0007F817981888B7A756D706B646788877931
:1048F000919F93849A94797F857F6E7B897D84874D
:104900008C7C73696C6F68647C8B75869A9A899DC0
:10491000AA8D8B8D836E6976676B73807C76726DE2
:1049200070685A66806D7695A1929DB69F94979017
:104930007E75867D7A80877F736B6265635E64882F
:104940007A758E9888829F8F859292887D8D8379E3
:104950007D817D75746D76786F69877B697E8A7ECF
:1049600075998F7D88867D6F84847E8C96948581F1
:10497000726E6E625D83847994A59787A08C757B37
:104980007B766B83857E8A908676786C656C6666AE
:10499000857D7688978B85A3908A908E80738377A8
:1049A0006F7B847D76817C70776F727D6E77828D70
:1049B0008292A28A94908A777A82707885877878B2
:1049C0007F766E767588827C92918C809C8A7485C5
:1049D0007E756A827C697C8376676E736A6F6F8688
:1049E000947E94A39B859CA57E868C866C7A826A35
:1049F0006B7E79676C736F716C74907779929A851E
:104A000094B39497969078757D6971767871717882
:104A100072766973816D78868D7F949B8188887F9B
:104A200070837F7583897C7177716D6D708F8F84D2
:104A30009DAA9585A388727F8372708378757A7B2F
:104A40006C62676B7068819C8890A0A3879AA1872D
:104A50008C8C85717D72646967635C676774737C35
:104A60009C87899AA38B98B18C8D958C717A7B6782
:104A70006C6E6D5C64666D676D94888DA2B9A8A537
:104A8000BB9D9186806863655D6664675A5D585E0C
:104A90005B62837D8FA4B6A4B4CAA5A0A397757EDC
:104AA0007C656768665255565E516588788297AB1B
:104AB00092A3B59CA29A998C907F7C7D6A625A578A
:104AC0004F5A5A7C7E7D92A09B8DAE978C8F9080A2
:104AD000768476756B6E61595B68677291818D978C
:104AE000A08B9EAB93A09D99868D7C736D625A526C
:104AF0005354605D828084929C9992AB9599998F72
:104B00008281817071757063676C68587B7A697E89
:104B10008D9086ADA59B9D968D7C796D72666A673A
:104B200066636D6A718675878E9C8FA2AB93978D35
:104B30008B7A7C777878736C6A635D5A6578688065
:104B4000919A94A5A98F968B83747B7876757975E5
:104B500067696B6766897C83969F9498A68A8E881E
:104B6000877A7D7B747269665651555A5A80859052
:104B7000A1B1ACA4B59C9C908C847D7973756A645A
:104B80005D57535453736F758993918FAB9AA2A05D
:104B9000A19A928F807E6C695B5B59595E7D7E75B0
:104BA0008F938A829C8C8B938F8E868D848379746D
:104BB0006A6465615B7A807288948F85A69B929EF9
:104BC000979486867B776B68655B5D68606F877698
:104BD000828E9181979D8897948E83897E78767650
:104BE0007367696E69618579758D9C9696B69C9898
:104BF0009587786E6E646C6C737072716E63737F80
:104C0000678193968DABAF97A49B907D80777170F1
:104C10006C6E5E5E585C56747B7A959B9E95AB98E5
:104C20008D9287847B8981807D8074656764615AF9
:104C3000897F798A9A988AA7908E87868585927DC2
:104C4000817262525E5950616D88799DAC9FA0B0AF
:104C5000B88D96A78F7D7B785C65625450525D62FB
:104C60006F607F8282909CAB9AB5ABA0A89D827149
:104C7000927B7196A5885157433C305D926F77883F
:104C80009F769AC9B1A69A9A6C6A7475777781678C
:104C90004D5266675A84947B7F96A182A3B6A793F0
:104CA0008D9C888F978C7B74705952595A58516DCE
:104CB00081738399A5859EAC979A9293838E847510
:104CC000737B716060625F61686F85777C91A69588
:104CD00091B0A39B969A8B7C7E6B64656E6A6E78AE
:104CE0007E6F6D656D766F909CA89AAEA48A938254
:104CF0007A7376696C6D706E6E645F6A6777749CA8
:104D00009F8FA5AA9C86AA9E7E959388737C7763C5
:104D10005D66685A606A6B637D6D869287939AAA16
:104D20008EA5A68E9084826D6B7B797D828B7E6F43
:104D3000696B5D6462798A768C919C8998A5878E6F
:104D4000898276737D72797F817E7C766F6F7570D4
:104D50006B927C72808F877CA89B8E938C816B7406
:104D60007B72787C817477757371776F768B767EC2
:104D70008A9A8E91AF9B9891898069777378787CB5
:104D80007D716B5E6A696D678A8A74879395819C71
:104D90009F818588887C80918A888686766F6E6AF6
:104DA00066726B688D80727B95887D9F9D888785F4
:104DB0008069748783898E98887C75746E6E606F45
:104DC0007D6C7B909B8A97A0847B7D7375788889A6
:104DD00087878485706B716B6C6C647C7E767E9A41
:104DE0009E95AFAF95928B7B706C797275777C785E
:104DF0006A7170656B61647B757A8DA4A09CAD9FB0
:104E0000919687887D87897D7D75745F5D6061641B
:104E10006C66818C7880929D8D9BA78E8C8F8B8504
:104E2000798C7E767878746A717170726665867A2C
:104E300074899D998BA39C86887D85767F8C7D84E3
:104E40007D807068666363625A7888768DA5AC98B9
:104E5000A3B08B8981817B748C808482827461622F
:104E60005F595C56657E6F768C9E9799B6A1999A2C
:104E7000938F7E928C7F797B7665636A5F5B585DEA
:104E800073636E84959498B39B949E91897F938D60
:104E90007F84827C6460696267656E846E79828ECD
:104EA0008685AA8D8A938D897E968D81847B766492
:104EB0006269626D62798A73878D9B909FBA9593C0
:104EC000948977677F7A73817D7A6968625D695AB0
:104ED00078756888979D8EB6B08E968E83707C8626
:104EE000818582776B6464555D67778573868D9164
:104EF0008591AB98999A8E85797D71717D716C657C
:104F00006D696A6B84987D879497818EA18A909051
:104F1000867D787D706B7175716468686E61758E61
:104F2000808D9AA8929AAE8D8C95917F6E7F726DCE
:104F30006E757368706A6A5E807D708F9A9A819BC5
:104F4000A08287868B837C8A7B817578696A707082
:104F500070639F87787B988C6D90999D908E8E6AF8
:104F60006D7468818E744B5C6C7273A2B29295B74B
:104F7000AA8A927E606B735F7B787C697780746E9F
:104F80006A756E767C99988E91958B889E998D978F
:104F900089857573635C5A5D746B7378746C908DDE
:104FA0008F9EA29B94A79B8D877A69575D70747DB5
:104FB00083866A655D5E5D6F88799CB4B1A1AEB988
:104FC000878D958F73687E66675E6351545853551D
:104FD00072927896AEAE9198B49B969FA295888770
:104FE000756C5D655A596464545C876F74889796D4
:104FF0009EB7A39F9E8C8F868D817E746660545C65
:10500000565D617C707798A7A3A3BDA595998D8205
:1050100077756C6A70645A575B5E5C5B878A7F94B5
:10502000A09D8DABB3AAB1AC9A8580796B6467659E
:1050300054514B4D4766796F8E9CA59EB3BCA2A779
:10504000A198857E82707073745E5E5E534B53745C
:10505000647896A8A29FB59C989D988B8294867739
:105060006F6F66535E6061597C7B71868C8E86A6FD
:10507000A59BA9A09E93928E7C796666535B585639
:105080005E6E83647D7F868998A492A69D908882B7
:10509000887D898A897E71725B5D5D7C6E75928A7E
:1050A00083809C8C88978F837D8B827B827B7764C7
:1050B000706464637A8B75938F91889E9E869593B6
:1050C0008D8284816D716A635E666A5F696E8A75BE
:1050D0007E9A9D9C9BAC93959D8B8182877B7684E9
:1050E000796C5D625C585D6C766C8B929292ACAC24
:1050F000929E9783777B7A6E7A7E6F67686A5B6130
:105100006B87817B959B9A92AA998F988D7F777FE9
:10511000766E6F6F6C5D5C6165686F92888DA1A320
:10512000998EA797918C8680757C75716F6B635F84
:1051300066626869718F848C98A59D9AAD99958DEA
:1051400088767072676569716B676E6C73727A913D
:10515000828A9AA4959DB69D939188686069605AE9
:10516000667367686B696C6D75949290A6B3A89F1F
:10517000B99A8D8A81736A776B6A6C74655D5E58C3
:105180005863667D8F8FA3AEAD9FADA39393898146
:10519000757B766E6D6F6B6063625F6B686F8F851A
:1051A000869BA69F9BB097928F877D7179706D705B
:1051B000796B6B6D6B66736B7694808C9CA28E970B
:1051C000A98A8985837875807471727A6B66676540
:1051D000637370789688909CA49496A58D928D8226
:1051E0007E737E7572757B736B7269636F6F68888F
:1051F000837B8A9B908AA2968A8F8E85778181771E
:105200007B837D6E787063666E616D8A7B7F939D14
:105210009098A6908E8C8A7F727E7A72747F7B6E55
:1052200078726E72746670907E7B929E8D91AA9554
:105230008C8E8C7C6B78736167767666757B697211
:105240007B71668B948399ABA692A5A48B86817F94
:10525000676A786966717B716C776F6E7478757543
:10526000938E86949B92869C99838887816C767FA7
:105270006A677A7C707883716D75625B436C6A646F
:1052800090A39D809A8E818D9DAC9595A98E7D80F1
:10529000918D849E947D81857B697B896D788A98C8
:1052A00085809E847C827F7A6473796F6F78876F44
:1052B0006C75605963665F566C756172919E8D95D1
:1052C000A584858F84776E7F7677818B9383969084
:1052D0007E7A7B7A6F707E908087A1A795A3C1A408
:1052E000969E957B6D7C71636467685A6A7061579E
:1052F00061675B64718D847D979D9383A29D82908D
:10530000938E76818A706D737A6F7382786F737FF4
:10531000797882919E919AA8A49194A58785888591
:10532000797081766F6E70736A7577706A6C715E72
:105330005F657D7C6F8C8F8A7F9793768A857F6E81
:105340007C897782888F8081907B797D857C788449
:105350007C9283849597968CA7968E978F87737C83
:10536000756C6E6E716A70726A6868756F6B707951
:10537000846B7688837987A1878A948D7D6F7D7011
:10538000656D777A79919185898D8F7983828993FB
:1053900083979C9E919FA888938E88797179656B7D
:1053A0006F7375767D6F6D6D666561675F6F7E6A21
:1053B0007B8D8F7F959F828B8C8B77768275777CA8
:1053C000878484948D857E7E7F7176758A8B7B9AA7
:1053D0009E9B90A5A88C99938977777F6C6D747844
:1053E00073717E7066646867575D5E7369658284F9
:1053F00086809E988798928F7E868C777D84897D23
:105400007F8F807773827667767B8B7D889D9E9E6B
:105410009CB49E909B8F8473817B6C72757B6E7243
:105420007C6C5F5E695954646A7E6E7E91938B904A
:10543000AD908B988E7D6C827868727D8373879037
:105440007C757F897479858F97889BA8A396A5B36F
:105450008E8E948871697D695A63716A5E777A6706
:1054600065777A5F6A757F7B7391918D879C9C7954
:1054700086847C686D806C717E8D8582998F807C3E
:105480008A816D7A839281849F9B938FAC9881935C
:105490008C8068797F69727D8672778674636273A7
:1054A0005F525F69715E738A887F8CAD8F8AA09B23
:1054B000887A9285707E8483738389756E7681691C
:1054C0006A79868A7E98A19C93A0B28C91998E79F4
:1054D0006F876E6771757466757467626B755F62EE
:1054E0006F80766D8F938A869F9E7D8E8E846E6E82
:1054F000816C717D8B887F968E837C8685707780AA
:10550000927F80A19E9390AD9A81938D816A777FDF
:10551000676E7682757386786C67776C5B65757E6F
:10552000677B938A7E8AA58780928D7D6C85806D4E
:10553000788186737F8A7A767B8D797280938C7876
:105540009BA79992ABB28B919B8B736E836C6374A8
:105550007C766B827965626B6C545D6D7D6D709449
:105560008F878BA699839692836F7783696F7E85E9
:105570007B7B92817678847C6C7788907D8EA79BEC
:10558000919CB093899C907E70827C636F79786ADD
:1055900074806A646B74655C6C7D78678492857FC7
:1055A000969E7E838E82716E83756D7F88897D91D4
:1055B000907C7A81836E728693827F9F9F8C8FAB63
:1055C0009C839394806C747D6868787F747285790D
:1055D0006A6E796E5F67797D66779188798C9F8234
:1055E0007E8F87786F817D6A76858676838F7A73E2
:1055F0007F83736F7D8F837997A4928DACA88891F8
:105600009787717686736A7985766C7C755F5E6B39
:1056100065595E74806D7A97968392AB928494916B
:105620007C6F7C7C666A7B817378857A6E767E730C
:10563000707991887D95A5998DABAA8D93998A7281
:10564000757F6F686F7C776E7D7E706C7877686B26
:105650007B8270768F8B7A869B847B8784726B7952
:105660007A7274828C81808C83737882736C788B6D
:10567000877A919D91859DA0858E9488767B837590
:10568000737B85847C8482746E76736369737E73A6
:1056900073878A818399897F8B867A747C7671750A
:1056A000757C7C7A7F7E78788178747A838E828B21
:1056B000999B9196A79493968F8179807776767748
:1056C0007C787676706B6D736B6D727F8176888E69
:1056D0008D859497848B867E6F6F6F666B6F757BFD
:1056E0007E817F7B7A7C7B74787C8C8B87999F987A
:1056F00093A49B8D948E837B7D7A7578797C807C56
:10570000807D767477736A6F727D7476858580800C
:105710008F828288827B777C75777B7A7F8280809C
:105720007E7A777D7773767F887B8896958E9AA52B
:105730009394988E8180827A787C7E81807F7E743B
:105740006D706F66686F7C7A77868C8782958D81A5
:1057500086847B7076746F6E727879777E807779C5
:10576000827D757A858B818996989097A4928F9186
:105770008C7D787D7875757A7B79787B756A7274A3
:105780006C6D75847E7A878F8880958F8389877DFD
:105790006F74736F6E717A797A7C7E71717B7372BC
:1057A00073858A838D9A9C8C9AA39091948E7E7C2B
:1057B000807874727B7A787B7F786D7B746F697385
:1057C000837378848C7D7F96838089877A74817ACD
:1057D00077767C7F777C7A796B77797377758E8330
:1057E000808C9390829C9385908D887983847C7B38
:1057F0007F877E81817D6E7475696E6E857F798904
:105800008F8A7F948F7D8A867D7076776E6D7178B2
:105810006F7476776B777B74767A90868595A09493
:1058200091A5988D939082777D797370757A717652
:1058300077716876737275839588929CA08C929D1F
:1058400083838681716F766D6868716D6C71776B1B
:10585000707C78757A968B879BA69892A59686879A
:1058600086786F76756D6975756F737971717E7CE9
:105870007A7B958B818F978B7F988A7F84827A70D1
:10588000797B76737F847E7E8377757B7970749164
:10589000878293A2938DA29287868779717C79758E
:1058A000727C796E716E67696F6B647984758292B0
:1058B000967F877D60676A82858A8874707F938807
:1058C00085948A8081867E889F8697B3BDADACBF64
:1058D000A09C98927D7584716A6C776A636E574F4D
:1058E000565F566280686C7B80737C8F75787B7B9B
:1058F0007577857D808288716B705D6159615072AA
:105900008D8096ACB8A3BEC4A8A4989482868B83DD
:1059100083828F808D89847C776E638C716C8189A2
:105920007871907F80908A7D6F796A666A71594C30
:1059300057465B67746A909C88A7B5B09DB0A48BEE
:105940008E8284798583838084897A85767B747559
:1059500067849B839AACAA8A9B9A797B79745A65EF
:105960006B65646F7D67675C60565B5D75846E8E8A
:10597000999084A19C7F8D858071777D7075888CCE
:105980007D898685878F819DA48A9FA49C8EA69EF3
:10599000898E857F6E7A7B6F6B777562625D5D53F2
:1059A00053567A7A748F958D86A791808A8776640C
:1059B00079726B7286776C6F66656972729A928F74
:1059C000ADB2A5A8C0A29EA59E8B818F7F757D904C
:1059D0007C7681746468655D7768677880707E9195
:1059E0007A85847F7172746A69707E6A6A6D6D5E91
:1059F0006468758A7D949DA295A6A98F9C949184D4
:105A00008F9284868F907A7D7A79767A758F937A61
:105A1000909487758F826F7D78776B78776F6E7FC4
:105A200078676D64605F5D5075706180938881A751
:105A300095888F8D8475888581849D9388918B86C8
:105A400088887AA395899DA48D829E7D7477746DD4
:105A50006476746C6F8879707572696F6E5F897621
:105A60006B838D7B779A7E798183786A7C746D6A8B
:105A700084767073747775797AA79194B4B6A4A775
:105A8000C09A92988D7C73867D76788E7C707269D0
:105A9000625D58537B6566858B76809C7A7A8480BC
:105AA0007271857C75788F7A6D736C64686A648FA7
:105AB000807E98A89399BB9E9CA098898089817EBE
:105AC0007C928B7E84827E74746487756A848D81F7
:105AD000789A8076817672687A7972778482686E35
